S01F0000416E696D61746F72447265616D63617374322E3447487A2E7372656399
S11300000C94FE000C941B010C941B010C941B011A
S11300100C941B010C941B010C941B010C941B01EC
S11300200C941B010C941B010C941B010C941B01DC
S11300300C941B010C941B010C941B010C941B01CC
S11300400C941B010C941B010C941B010C941B01BC
S11300500C941B010C941B010C941B010C941B01AC
S11300600C941B010C941B010C941B010000000454
S113007000000000000000000000001E000000005E
S11300800013000000000009800000000005FC00CF
S11300900000000602000000000501380000000511
S11300A034E800000005126800000005092C000077
S11300B0000508B40000000524B500000002A2BD3C
S11300C000000002FFE640000002807B50000002B6
S11300D0808D90000002BF1AA0000005002540009A
S11300E000050046E00000053F89A000000A011950
S11300F0F000000A0229A800000A04692800000A86
S1130100F8A91400000A092A1400000A122A10008F
S1130110000A242A1000000AC82C0000000A102C2F
S11301200000000BF02C0000000FE018000000009D
S113013000000000000000040000000000000000B7
S113014000000000000000000000010000000000AA
S113015000C00000000000600000000000F8000083
S1130160000001FC00000000063E00000000007ECC
S11301700000000001FE0000000003C600000000B3
S11301800183000000000181800000000101C00023
S113019000000181C0000000018FE000000001C7E1
S11301A0E00000000083E00000000041E0000000E7
S11301B00003E0000000000FE0000000000FE0007A
S11301C00000000FE00000000003E0000000000158
S11301D0E00000000001C00000000001C0000000B9
S11301E0000300000000000E0000000000080000F2
S11301F000000000000000000000000011241FBEE9
S1130200CFEFD4E0DEBFCDBF11E0A0E0B1E0EEED72
S1130210F8E102C005900D92AA30B107D9F723E0A6
S1130220AAE0B1E001C01D92A03CB207E1F70E9430
S1130230280C0C946D0C0C94000091E09BB995E093
S11302409A95F1F7000088230CF4599A0000589805
S113025095E09A95F1F7000092E09BB995E09A95A4
S1130260F1F7000086FD589A0000599895E09A9598
S1130270F1F7000091E09BB995E09A95F1F7000041
S113028085FD599A0000589895E09A95F1F7000079
S113029092E09BB995E09A95F1F7000084FD589A95
S11302A00000599895E09A95F1F7000091E09BB908
S11302B095E09A95F1F7000083FD599A000058984B
S11302C095E09A95F1F7000092E09BB995E09A9534
S11302D0F1F7000082FD589A0000599895E09A952C
S11302E0F1F7000091E09BB995E09A95F1F70000D1
S11302F081FD599A0000589895E09A95F1F700000D
S113030092E09BB995E09A95F1F7000080FD589A28
S11303100000599885E08A95F1F7000008958CEF64
S11303208AB983E08BB908950F931F93CF93DF931A
S1130330DC01EF93FF938827EFE3F1E034E13A9592
S113034041F02FEF19B12A95D1F309B10117D9F36F
S113035005C083955C9A5C980C94B00609B101932E
S113036009B1019309B1019309B1019309B1019351
S113037009B1019309B1019309B1019309B1019341
S113038009B1019309B1019309B1019309B1019331
S113039009B1019309B1019309B1019309B1019321
S1130D60FF91EF9181118FC080913F018370813099
S1130D7009F49BC021E030E0F901E15CFE4F908171
S1130D809370913049F02F5F3F4F213882E038074C
S1130D9099F76FEF7FEF90C0213882E0380709F4AC
S1130DA07EC01C92F901E15CFE4F90819370213862
S1130DB082E038070CF06AC010E8C0E0D0E000E040
S1130DC0F901E15CFE4F5081452F437050FF02C092
S1130DD02C9A01C02C98491729F1842F80959823C7
S1130DE0E9F0901729F1933011F42C9A2C984423AC
S1130DF031F0FD01EC0FFD1F8081812B808316955E
S1130E0079F42196C617D70708F04CC0FD01EC0F02
S1130E10FD1F1082092F942F10E804C0942F02C0E4
S1130E20092F942F2F5F3F4F213882E0380741F676
S1130E30BE011C161D060CF03FC061507109CB01A8
S1130E4083709927892B29F5FD01CA0FDB1F90E0D8
S1130E502D919227CA17DB07D9F791111DC01616D9
S1130E60170654F520E030E09381808183839083DA
S1130E7092814181428391832C5F3F4F34962617A0
S1130E80370794F319C06FEF7FEF16C060E070E08E
S1130E9013C06EEF7FEF10C06EEF7FEF0DC06FEFEA
S1130EA07FEF0AC06DEF7FEF07C01C9290913F0166
S1130EB0937020E030E080CFCB01DF91CF911F9180
S1130EC00F9108958F929F92AF92BF92CF92DF922B
S1130ED0EF92FF920F931F93CF93DF935C017B01FB
S1130EE0042F9BB193609BB99AB193609AB983E044
S1130EF08BB992E09BB925E02A95F1F700001BB865
S1130F00E5E0EA95F1F700009BB9F5E0FA95F1F711
S1130F1000001BB825E02A95F1F700009BB9E5E035
S1130F20EA95F1F700001BB8F5E0FA95F1F7000037
S1130F309BB925E02A95F1F700001BB8E5E0EA9596
S1130F40F1F700009BB9F5E0FA95F1F700008BB9D1
S1130F5025E02A95F1F7000081E08BB9E50184E0F2
S1130F60A80EB11CC12C4E0189910E941D01F401EF
S1130F708081C826AC16BD06B1F710E01016110624
S1130F8004F5C0E0D0E0FE01EC7FFF273396CE01EC
S1130F9083709927E81BF90BEE0DFF1DD4908D2D5E
S1130FA00E941D01CD24209741F0CE01877099271E
S1130FB0892B19F4F0EAFA95F1F72196C017D107B5
S1130FC011F78C2D0E941D0181E08BB925E02A9533
S1130FD0F1F7000093E09BB9E5E0EA95F1F7000032
S1130FE08BB9F5E0FA95F1F700001BB825E02A95D6
S1130FF0F1F700008BB9E5E0EA95F1F700001BB8C2
S1131000F5E0FA95F1F700008BB925E02A95F1F7A0
S113101000009BB98BB183608BB98AB18C7F8AB98C
S1131020DF91CF911F910F91FF90EF90DF90CF90C0
S1131030BF90AF909F908F9008950F931F93CF937D
S1131040DF9310923E0110923D01662309F43FC0E4
S1131050DC01EC01C60FD11D19E060E071E002E093
S113106032C0582F2FEF250F9C91942360FF0EC0A0
S113107030E0F901E15CFE4F00839923A1F0F9010E
S1131080E15CFE4F8081816080830DC030E0F90116
S1131090E15CFE4F7083992331F0F901E15CFE4F6E
S11310A08081826080836727469581E0850F1813CD
S11310B0D8CF185F1196AC17BD0729F460933D0192
S11310C050933E0104C058EF510F40E8CBCF8BB191
S11310D083608BB98AB183608AB980913E01869519
S11310E090E0EFE3F1E0FF93EF93382F41E052E01B
S11310F00191589A599A0000000000000000000075
S113110000000000000058980000000000000000EB
S11311105998000000000000599A000000000000E7
S11311205998000000000000599A000000000000D7
S11311305998000000000000599A000000000000C7
S11311405998000000000000599A000000000000B7
S113115000000000589A59984BB90BB9589801915E
S11311605BB90BB9599801913A95B1F7589A0000B7
S1131170000000000000599A599800000000000087
S11311805898000000000000589A00000000000079
S11311905898000000000000589A00000000000069
S11311A0599AEF91FF918BB183608BB98AB18C7F8F
S11311B08AB9DF91CF911F910F9108950F931F93D7
S11311C0CF93DF9300D000D0CDB7DEB7F901F5950A
S11311D0E795F595E795E9834A836B838C83422FE2
S11311E0B801CE0101960E9462070F900F900F90F4
S11311F00F90DF91CF911F910F9108956F927F927D
S11312008F929F92AF92BF92CF92DF92EF92FF9212
S11312100F931F93CF93DF93CDB7DEB74901ADB6DC
S1131220BEB6690125E0C20ED11C340134E0630E60
S1131230711CEDB7FEB7EC19FD090FB6F894FEBFAB
S11312400FBEEDBF2DB73EB72F5F3F4F790194011D
S113125035952795359527952183F7014183628339
S113126083838114910431F0A401B801C701049669
S11312700E94640C1614170474F4F70124E0820E1F
S1131280911C9701280D391D80E091918927E2175F
S1131290F307D9F703C0812C912C80E0F701E80D06
S11312A0F91D80836C2DC7010E941D080FB6F894A8
S11312B0BEBE0FBEADBEDF91CF911F910F91FF90C7
S11312C0EF90DF90CF90BF90AF909F908F907F90E2
S11312D06F9008950F931F93CF93DF9300D000D0A6
S11312E0CDB7DEB709831A832B833C838E010F5F4E
S11312F01F4F24E030E00E94FE080F900F900F90E3
S11313000F90DF91CF911F910F9108950F931F9329
S1131310CF93DF93CDB7DEB76E970FB6F894DEBFE9
S11313200FBECDBF60913B01662399F0811103C0CC
S11313300CE610E002C004E311E028EC30E040E4E5
S11313408CE00E94DE086EE170E0CE0101960E94FE
S1131350940180E06E960FB6F894DEBF0FBECDBF49
S1131360DF91CF911F910F910895AF92BF92DF92B9
S1131370EF92FF920F931F93CF93DF93CDB7DEB716
S1131380EC970FB6F894DEBF0FBECDBF7C01809101
S11313903C01823009F4B7C028F4882349F0813035
S11313A0B1F0EDC08530D1F1863009F496C0E7C0C4
S11313B000E010E020E030E040E060E283E00E94E2
S11313C0FE0881E080933C0180933A01D8C000E09C
S11313D010E020E030E040E460E681E00E94FE0896
S11313E06EE170E0CE0101960E949401EFE3FFE10B
S11313F03197F1F700C00000029651F48D8180FF0F
S113140007C085E080933C011092390110923801A5
S113141081E080933A0110923701B1C0E12CF12CA4
S1131420AA24A394B12CB5010E2C02C0660F771F19
S11314300A94E2F7262F2064D22E00E010E020E088
S113144030E040E46D2D81E00E94FE086EE170E022
S1131450CE014F960E949401029679F48FE39FE1A6
S11314600197F1F700C000008CA190E0982F882725
S11314702BA1822B82FDD0923B019FEFE91AF90A3E
S1131480E5E0EE16F10479F680913B01882391F0B2
S113149080913801909139018D3D91055CF080E097
S11314A00E94860986E080933C01109239011092D3
S11314B0380165C08091380190913901019690936B
S11314C0390180933801813991401CF082E0809386
S11314D03C0181E080933A0152C08091380190919F
S11314E039010196909339018093380181399140F3
S11314F034F081E00E94860982E080933C0181E01F
S113150080933A013CC001E010E020E030E040E488
S113151060E689E00E946A096EE170E0CE010196FE
S11315200E9494011816190664F0809137018F5FA8
S113153080933701853630F181E080933C0180E06F
S113154024C0109237014097FCF08D85F701848305
S11315508E8585838B858695805882838C85869538
S1131560805883838A85809590E0982F88272985E1
S11315702095822B9183808381E080933A0180912E
S11315803A0103C080E001C080E0EC960FB6F89405
S1131590DEBF0FBECDBFDF91CF911F910F91FF90A2
S11315A0EF90DF90BF90AF90089584B18C6284B9BE
S11315B02C9A81E58CBD1DBC08958EBD0DB407FE2B
S11315C0FDCF8EB5089540980895409A0895AF923E
S11315D0BF92CF92DF92EF92FF920F931F93CF931C
S11315E0DF93B82EA62E6A01F22E81E0B81202C053
S11315F0E0E2AE0EF5E3FA95F1F700000E94E30A8B
S113160085E38A95F1F700008A2D0E94DD0AE5E35F
S1131610EA95F1F70000FF2039F107E111E0E60156
S1131620FA94EF2CF12CFFEFEF1AFF0AEC0CFD1CDF
S1131630B1100DC080EAA81651F08FEF0E94DD0AA8
S1131640F8018083F5E3FA95F1F7000007C088817B
S11316500E94DD0A85E38A95F1F700000F5F1F4FB2
S11316602196CE15DF0521F70E94E50A87E191E076
S1131670DF91CF911F910F91FF90EF90DF90CF906A
S1131680BF90AF90089585E38A95F1F700004098E4
S113169085E38A95F1F7000087E20E94DD0A85E37D
S11316A08A95F1F7000080E70E94DD0A85E38A95B8
S11316B0F1F70000409A0895CF93C82F85E38A95E7
S11316C0F1F700000E94E30A85E38A95F1F7000030
S11316D08C2F0E94DD0A85E38A95F1F700008FEFD5
S11316E00E94DD0AC82F85E38A95F1F700000E9465
S11316F0E50A8C2FCF910895CF92DF92EF92FF925B
S11317000F931F93CF93DF931F92CDB7DEB7082FAC
S11317106B017A0187B1836087B988B1836088B926
S11317200E94D50A11E0198321E0AE014F5F5F4F9B
S113173061E081E00E94E70A8FE2898321E0AE0143
S11317404F5F5F4F64E081E00E94E70A198321E064
S1131750AE014F5F5F4F62E081E00E94E70A83E0E1
S1131760898321E0AE014F5F5F4F63E081E00E9417
S1131770E70A198321E0AE014F5F5F4F65E081E026
S11317800E94E70A87E0898321E0AE014F5F5F4F43
S113179066E081E00E94E70A25E0A6016AE081E0B4
S11317A00E94E70A25E0A70160E181E00E94E70AC0
S11317B085E0898321E0AE014F5F5F4F61E181E005
S11317C00E94E70A0E3119F48EE7898302C08FE77D
S11317D0898321E0AE014F5F5F4F60E081E00E94AA
S11317E0E70A2FEF81EE94E0215080409040E1F72A
S11317F000C000000F90DF91CF911F910F91FF90D7
S1131800EF90DF90CF900895CF93DF93EC0120E029
S1131810AC0161EE80E00E94E70A25E0AE0160EAD7
S113182080E00E94E70A8FE39CE90197F1F700C08A
S11318300000419A9AE69A95F1F700C041988FE327
S11318409CE90197F1F700C00000DF91CF91089562
S1131850209A85B185B90E948F0140E051E065E08E
S113186071E08EE10E947C0B7894CAE0D1E08FE0B5
S113187091E00E94B5098823D1F380910F0182FF82
S113188002C0289A02C081FD2898EFE0F1E080812F
S113189088838381898382818A8384818B83858100
S11318A08C83CE010E94040C87E00E945C0B84FFB1
S11318B004C0289A0E94430B28988FE39CE901975F
S11318C0F1F700C00000D3CFFB01DC0102C001909E
S11118D00D9241505040D8F70895F894FFCF80
S10D18DE1212121212121212121248
S9030000FC
