S0200000416E696D61746F72436F6E74726F6C6C6572322E3447487A2E7372656308
S11300000C9436000C9453000C9453000C9453003D
S11300100C9453000C9453000C9453000C94530010
S11300200C9453000C9453000C9453000C94530000
S11300300C9453000C9453000C9453000C945300F0
S11300400C9453000C9453000C9453000C945300E0
S11300500C9453000C9453000C9453000C945300D0
S11300600C9453000C9453000C94530011241FBEA1
S1130070CFEFD4E0DEBFCDBF11E0A0E0B1E0E8E413
S1130080F4E002C005900D92AA30B107D9F721E03F
S1130090AAE0B1E001C01D92A633B207E1F70E94C5
S11300A0F1010C9422020C94000084B18C6284B996
S11300B02C9A8DE78CBD1DBC08952A9808952A9A20
S11300C008958EBD0DB407FEFDCF8EB5089584B19D
S11300D084B92E9A0E94550008951F93CF93DF93FD
S11300E0EC010E945D0081E00E94610082E40E94B4
S11300F06100888380E00E9461008FEF0E946100AC
S1130100182F8FEF0E946100912F9095292F30E0D6
S1130110322F22278095282B3A8329838FEF0E9440
S1130120610080958D838FEF0E94610080958E839E
S11301308FEF0E94610080958B838FEF0E94610096
S113014080958C830E945F0081E0DF91CF911F91A5
S113015008958CB5837D8CBD40980895409A8CB5E4
S11301608C628CBD0895AF92BF92CF92DF92EF92D2
S1130170FF920F931F93CF93DF93B82EA62E6A019D
S1130180F22E81E0B81202C0E0E2AE0EF3E0FA957E
S1130190F1F700000E94A90083E08A95F1F70000BE
S11301A08A2D0E946100E3E0EA95F1F70000FF2048
S11301B039F106E111E0E601FA94EF2CF12CFFEF9E
S11301C0EF1AFF0AEC0CFD1CB1100DC080EAA81652
S11301D051F08FEF0E946100F8018083F3E0FA95FB
S11301E0F1F7000007C088810E94610083E08A95CE
S11301F0F1F700000F5F1F4F2196CE15DF0521F7A1
S11302000E94AE0086E191E0DF91CF911F910F91A2
S1130210FF90EF90DF90CF90BF90AF90089583E070
S11302208A95F1F70000409883E08A95F1F7000081
S113023087E20E94610083E08A95F1F7000080E77D
S11302400E94610083E08A95F1F70000409A0895C6
S1130250CF93C82F83E08A95F1F700000E94A9008C
S113026083E08A95F1F700008C2F0E94610083E0FF
S11302708A95F1F700008FEF0E946100C82F83E098
S11302808A95F1F700000E94AE008C2FCF9108955B
S1130290CF92DF92EF92FF920F931F93CF93DF934E
S11302A01F92CDB7DEB7082F6B017A0187B1836047
S11302B087B988B1836088B90E94550011E0198319
S11302C021E0AE014F5F5F4F61E081E00E94B30027
S11302D08FE2898321E0AE014F5F5F4F64E081E0EC
S11302E00E94B300198321E0AE014F5F5F4F62E0CB
S11302F081E00E94B30083E0898321E0AE014F5F77
S11303005F4F63E081E00E94B300198321E0AE01F6
S11303104F5F5F4F65E081E00E94B30087E089830F
S113032021E0AE014F5F5F4F66E081E00E94B300C1
S113033025E0A6016AE081E00E94B30025E0A70160
S113034060E181E00E94B30085E0898321E0AE0191
S11303504F5F5F4F61E181E00E94B3000E3119F4F9
S11303608EE7898302C08FE7898321E0AE014F5F66
S11303705F4F60E081E00E94B30087EA91E6019755
S1130380F1F700C000000F90DF91CF911F910F9102
S1130390FF90EF90DF90CF900895CF93DF93EC011F
S11303A020E0AC0161EE80E00E94B30025E0AE01E4
S11303B060EA80E00E94B30083EC99E00197F1F7D2
S11303C000C00000419A96E09A95F1F700C0419868
S11303D083EC99E00197F1F700C00000DF91CF9121
S11303E00895209A85B185B90E94670040E051E0E4
S11303F065E071E08EE10E9448017894CAE0D1E0A2
S11304008FE091E00E946D00EFE0F1E09181828144
S11304109883898383818A8384818B831C82CE0120
S11304200E94CD0187E00E94280184FF04C0289A1D
S11304300E940F01289887E893E10197F1F700C023
S10B04400000DECFF894FFCFA9
S10D044812121212121212121212F2
S9030000FC
